02:13:16.669876 IP 172.20.1.126.ssh > 172.20.1.50.56357: Flags [P.], seq 3333012379:3333012567, ack 3262680263, win 900, length 188
	0x0000:  b4ae 2b38 3cef b827 ebc0 65b4 0800 4510
	0x0010:  00e4 38ba 4000 4006 a671 ac14 017e ac14
	0x0020:  0132 0016 dc25 c6a9 bb9b c278 8cc7 5018
	0x0030:  0384 a37a 0000 eef7 8c92 8f35 0868 0112
	0x0040:  6e05 1b0b 08d6 27d8 1168 f3ed ab8b 0cac
	0x0050:  5d4f 1344 dc21 79b8 40c5 57bb 8ccd 9aa7
	0x0060:  8dff 5f30 8325 ff8f 0ff6 8c98 2335 da87
	0x0070:  56f2 8ae6 7c11 d8fb 93e0 7e1a 6faa 634c
	0x0080:  ce45 2e86 29f6 f7e4 b8c7 a57e a1a1 018b
	0x0090:  bb2b 7c01 ce56 d921 9682 758c e4f4 ba17
	0x00a0:  8392 5fab cf9e 792b e247 14cb 22fb b994
	0x00b0:  c6b3 f273 a1e9 2044 18ca e19d 4017 e83e
	0x00c0:  9be6 2669 03f2 3fc0 61b2 0b83 0d93 15a4
	0x00d0:  26f9 f06e ea53 a596 7764 6035 668e f061
	0x00e0:  b6bd c08a 5e26 6f10 a818 2b73 45e7 4ed7
	0x00f0:  66d5
02:13:16.717686 IP 172.20.1.50.56357 > 172.20.1.126.ssh: Flags [.], ack 188, win 52925, length 0
	0x0000:  b827 ebc0 65b4 b4ae 2b38 3cef 0800 4500
	0x0010:  0028 6cdc 4000 8006 331b ac14 0132 ac14
	0x0020:  017e dc25 0016 c278 8cc7 c6a9 bc57 5010
	0x0030:  cebd d7c0 0000
02:13:17.656413 IP 172.20.1.126.37478 > 172.20.1.1.domain: 5698+ PTR? 126.1.20.172.in-addr.arpa. (43)
	0x0000:  0050 e804 1475 b827 ebc0 65b4 0800 4500
	0x0010:  0047 fc86 4000 4011 e377 ac14 017e ac14
	0x0020:  0101 9266 0035 0033 e2e9 1642 0100 0001
	0x0030:  0000 0000 0000 0331 3236 0131 0232 3003
	0x0040:  3137 3207 696e 2d61 6464 7204 6172 7061
	0x0050:  0000 0c00 01
02:13:17.778132 IP 172.20.1.1.domain > 172.20.1.126.37478: 5698 NXDomain 0/1/0 (120)
	0x0000:  b827 ebc0 65b4 0050 e804 1475 0800 4500
	0x0010:  0094 0000 4000 3b11 e4b1 ac14 0101 ac14
	0x0020:  017e 0035 9266 0080 aef8 1642 8183 0001
	0x0030:  0000 0001 0000 0331 3236 0131 0232 3003
	0x0040:  3137 3207 696e 2d61 6464 7204 6172 7061
	0x0050:  0000 0c00 01c0 1200 0600 0100 0007 0800
	0x0060:  4108 7072 6973 6f6e 6572 0469 616e 6103
	0x0070:  6f72 6700 0a68 6f73 746d 6173 7465 720c
	0x0080:  726f 6f74 2d73 6572 7665 7273 c045 0000
	0x0090:  0001 0009 3a80 0000 003c 0009 3a80 0009
	0x00a0:  3a80
02:13:17.778562 IP 172.20.1.126.55367 > 172.20.1.1.domain: 288+ PTR? 50.1.20.172.in-addr.arpa. (42)
	0x0000:  0050 e804 1475 b827 ebc0 65b4 0800 4500
	0x0010:  0046 fc8d 4000 4011 e371 ac14 017e ac14
	0x0020:  0101 d847 0035 0032 e72c 0120 0100 0001
	0x0030:  0000 0000 0000 0235 3001 3102 3230 0331
	0x0040:  3732 0769 6e2d 6164 6472 0461 7270 6100
	0x0050:  000c 0001
